:20800000B240805A2001F2D006001B00D2D36900F2400F006800F24081006900F2400C007F
:208020006A00C2436B00B24069001A01D2C36900F2D20100F24034000102D2430002F2D0EB
:208040001200690032D018000343D2530102F53F0A1209123F400C813F900E8116243F408F
:208060000E813F90128111243A4012813A800E810A110A1139400E813C497F4C0F5F1F4F1A
:208080000C813D498F121A83F723B01206813040EE80C29300020820E2D26900F2C20300FB
:2080A000B1C010000000053CD24201026F00D2830002001331400006B01202810C9302248D
:2080C000B01250800C43B01200801C43B012FC801F4C01000F9305241D53CD43FFFF1F8389
:2080E000FB2330413441354136413741384139413A41304132D01000FD3F03430343FF3F20
:0881000003431C4330413041F0
:0A81080000000200D0800881000290
:02FFDE00FFFF23
:02FFE400F480A7
:02FFE600F480A5
:02FFEA00F480A1
:02FFEC00928001
:02FFEE00F4809D
:02FFF000F4809B
:02FFF200F48099
:02FFF400F48097
:02FFF800F48093
:02FFFA00F48091
:02FFFC00F4808F
:02FFFE00B480CD
:00000001FF
